:100000000C9417050C94F01C0C945E050C945E0582
:100010000C945E050C945E050C945E050C945E05D4
:100020000C945E050C945E050C9455310C942732AB
:100030000C94982B0C945E050C945E050C945E0554
:100040000C945E050C945E050C945E050C945E05A4
:100050000C945E050C94F12B0C945E050C945E05DB
:100060000C945E050C945E050C945E050C945E0584
:100070000C945E050C945E050C945E050C945E0574
:100080000C945E050C945E050C945E050C945E0564
:100090000C945E050C945E050C945E050C945E0554
:1000A0000C945E050C945E050C945E054A214A2171
:1000B0007C217C21C921FD22FD22FD22E7217C2219
:1000C0008D228D22ED22FD22FD22F62299239923F5
:1000D000AB23AB23A223AB23AB23AB2399239923DD
:1000E000A723AB23AB23A7239432BB32B333BB325A
:1000F000B33307332A33B33381339033165C1E0096
:100100001F002000210022002B0014001A0008000C
:1001100015001700E00004001600070009000A009F
:10012000E1001D001B000600190005000000000092
:10013000E30001512C002F002A0027002600250093
:10014000240023003100130012000C0018001C00D2
:10015000340033000F000E000D000B00E5003800E6
:10016000370036001000110000000000E2000251CC
:1001700028003000350000000000000000000000F2
:1001800000000000520000000000000000005000CD
:1001900051004F00000000000100000000000000BE
:1001A000000000000000000000000100000000004E
:1001B0004C002E002D000000000000000000000098
:1001C000000000000000000000000000000000002F
:1001D000000000000000000000000000000000001F
:1001E00000000000E60000000000000045003A00AA
:1001F0003B003C003D003E000000000052000000BB
:10020000000000000000500051004F004B004A0069
:1002100000000000000000004E004D000000000043
:1002200000000000000000004400430042004100C4
:1002300040003F000000000000000000000000003F
:10024000C35CCA5CC85CC65CC45CA9000000CB5C33
:10025000C95CC75CC55CAA0000000000000001008A
:100260000000000044454255473A206469736162CA
:100270006C65642E0A0044454255473A20656E611C
:10028000626C65642E0A000A0025303862003A204C
:100290000025303258000A722F6320303132333457
:1002A0003536370A007267626C6967687420616E60
:1002B000696D6174696F6E207469636B207265701B
:1002C0006F727420746F20736C6176650A007267B8
:1002D000626C696768742074696D65722064697303
:1002E00061626C652E0A007267626C6967687420CF
:1002F00074696D657220656E61626C65642E0A00BA
:100300007267626C696768742073657420687376BD
:10031000205B4E4F454550524F4D5D3A2025752C80
:1003200025752C25750A007267626C6967687420F0
:1003300073657420687376205B454550524F4D5D60
:100340003A2025752C25752C25750A007267626C7C
:1003500069676874207261696E626F772073657473
:10036000206873763A2025642C25642C25642C257E
:10037000750A007267626C696768742064697361EA
:10038000626C65205B4E4F454550524F4D5D3A20A3
:100390007267626C696768745F636F6E6669672E07
:1003A000656E61626C65203D2025750A007267628A
:1003B0006C696768742064697361626C65205B4571
:1003C0004550524F4D5D3A207267626C69676874A0
:1003D0005F636F6E6669672E656E61626C65203D56
:1003E0002025750A007267626C6967687420656E03
:1003F00061626C65205B454550524F4D5D3A2072FD
:1004000067626C696768745F636F6E6669672E65A3
:100410006E61626C65203D2025750A007267626C12
:100420006967687420746F67676C65205B45455029
:10043000524F4D5D3A207267626C696768745F6302
:100440006F6E6669672E656E61626C65203D202562
:10045000750A007267626C69676874206D6F646505
:10046000205B4E4F454550524F4D5D3A2025750A51
:10047000007267626C69676874206D6F6465205BE9
:10048000454550524F4D5D3A2025750A007267620E
:100490006C696768745F696E6974207267626C6901
:1004A0006768745F636F6E6669672E6D6F64652041
:1004B0003D20302E20577269746520646566617531
:1004C0006C742076616C75657320746F204545509F
:1004D000524F4D2E0A007267626C696768745F69DB
:1004E0006E6974206565636F6E6669672069732045
:1004F0006E6F7420656E61626C65642E0A007267AF
:10050000626C696768745F696E6974207374617284
:1005100074210A007267626C696768745F696E694A
:10052000742063616C6C65642E0A007267626C698A
:100530006768745F636F6E6669672E737065656464
:10054000203D2025640A007267626C696768745FE9
:10055000636F6E6669672E76616C203D2025640AA4
:10056000007267626C696768745F636F6E66696763
:100570002E736174203D2025640A007267626C69E5
:100580006768745F636F6E6669672E687565203D86
:100590002025640A007267686C696768745F636F1E
:1005A0006E6669672E6D6F6465203D2025640A00C4
:1005B0007267626C696768745F636F6E6669672EE5
:1005C000656E61626C65203D2025640A0072676279
:1005D0006C696768745F636F6E6669672045455034
:1005E000524F4D3A0A001E0F0500047F3F1F643230
:1005F00014643214783C1E1E140A05222325262872
:10060000292A2C2D2F3032333536383A3B3D3E40A7
:1006100042434547494A4C4E5051535557595A5CED
:100620005E6062646668696B6D6F71737577797B04
:100630007D7F81838587898A8C8E90929496989A03
:100640009C9E9FA1A3A5A7A8AAACAEAFB1B3B4B618
:10065000B8B9BBBCBEBFC1C2C3C5C6C7C9CACBCC73
:10066000CDCED0D1D2D2D3D4D5D6D7D7D8D9D9DA46
:10067000DADBDBDBDCDCDCDCDCDDDDDDDDDCDCDCBB
:10068000DCDCDBDBDBDADAD9D9D8D7D7D6D5D4D3E3
:10069000D2D2D1D0CECDCCCBCAC9C7C6C5C3C2C1B8
:1006A000BFBEBCBBB9B8B6B4B3B1AFAEACAAA8A715
:1006B000A5A3A19F9E9C9A98969492908E8C8A89CD
:1006C000878583817F7D7B79777573716F6D6B69AA
:1006D00068666462605E5C5A5957555351504E4C7F
:1006E0004A4947454342403E3D3B3A38363533322E
:1006F000302F2D2C2A292826252322FFAA7F55407A
:100700006261636B6C6967687420737465703A200A
:1007100025750A006261636B6C696768742064699F
:100720007361626C650A006261636B6C696768740F
:1007300020656E61626C650A006261636B6C69675B
:10074000687420746F67676C653A2025750A0062CB
:1007500061636B6C6967687420646563726561735B
:10076000653A2025750A006261636B6C696768747D
:1007700020696E6372656173653A2025750A000011
:100780000101010101010101010202020202020252
:100790000202030303030303030304040404040425
:1007A00004050505050506060606060707070707EB
:1007B00008080808090909090A0A0A0B0B0B0C0C9E
:1007C0000C0D0D0D0E0E0E0F0F0F1010111111123A
:1007D0001213131414151516161717181819191AB9
:1007E0001A1B1B1C1D1D1E1E1F202021222223241C
:1007F00024252626272829292A2B2C2D2D2E2F305B
:10080000313232333435363738393A3B3C3D3E3F6E
:10081000404142434445464748494A4C4D4E4F505B
:10082000515354555658595A5B5D5E5F6162646519
:100830006668696B6C6D6F7072737577787A7B7DA3
:100840007E8082838587888A8C8E8F9193959698F7
:100850009A9C9EA0A2A3A5A7A9ABADAFB1B3B5B713
:10086000BABCBEC0C2C4C6C9CBCDCFD1D4D6D8DBEA
:10087000DDDFE2E4E7E9EBEEF0F3F5F8FAFDFF0A7D
:10088000002530325820006B6579626F6172645FB9
:100890007265706F72743A20000A00253032580079
:1008A0006B6579626F6172645F7365745F6C6564B8
:1008B0003A20004F6E6573686F743A206163746903
:1008C00076653A2025640A005B735D004B657962AA
:1008D0006F6172642073746172742E0A005B575DDD
:1008E000005B535D005B525D005B445D005B435DFC
:1008F0000026034B0065006500620069006F002060
:100900000049007200690073002000520065007603
:10091000002E002000340000000E034B006500652F
:1009200000620069006F0000000403090409025B13
:1009300000030100A0FA09040000010301010009FD
:1009400021110100012240000705810308000A0966
:1009500004010001030000000921110100012232FD
:10096000000705820320000A0904020002030000B8
:100970000009211101000122220007058303200044
:100980000107050303200001120110010000000807
:1009900010CB56420004010200010631FF0974A188
:1009A000010975150026FF0095207508810209765A
:1009B000150026FF00952075089102C005010980E9
:1009C000A101850319012AB700150126B700950179
:1009D00075108100C0050C0901A101850419012AC7
:1009E000A002150126A002950175108100C0050125
:1009F0000906A101050719E029E715002501950859
:100A0000750181029501750881010507190029FF0B
:100A1000150026FF009506750881000508190129B3
:100A200005950575019102950175039101C0112489
:100A30001FBECFEFDAE0DEBFCDBF04B603FE27C096
:100A40008091680390916903A0916A03B0916B0350
:100A50008730904BA740B04BD1F4109268031092AE
:100A6000690310926A0310926B0314BE84B7877FE8
:100A700084BF0FB6F894A895809160008861809338
:100A80006000109260000FBEE0E0F8E3099511E00D
:100A9000A0E0B1E0EAEEFAE602C005900D92AA3FAE
:100AA000B107D9F723E0AAEFB1E001C01D92A83643
:100AB000B207E1F70E948A2E0C9473350C94000063
:100AC000FF93EF93E091FA01F091FB01309709F069
:100AD0000995EF91FF910895FC018591803011F007
:100AE000EFDFFBCF0895FF27E0E230E247FF0CC0C5
:100AF000419597FF09C0EDE26095709580959095BE
:100B0000611D711D811D911D27FF02C0219530E3DC
:100B100050E2AA27660F771F881F991FAA1FA417E4
:100B200010F0A41B63955A95A9F7AA3008F0A95FA5
:100B3000A05DAF93F395611571058105910541F7AE
:100B4000ED3211F4EF93F395F21718F43F93F39508
:100B5000FBCF8F91B5DFFA95E1F70895E991F9910F
:100B60008591803021F0853219F0AADFF9CF089500
:100B700020E0E89455915532C1F3503311F4689454
:100B800055915A3348F4505390F3220F022E220FFE
:100B9000220F200D250FF4CF0EF421958991999104
:100BA000533619F3533729F1533559F1BC018827CE
:100BB0009927E8945C3621F489919991689455912C
:100BC000543639F446EF7EF077FF0DC08FEF9FEF7C
:100BD0000AC055374AE039F0583540E121F0523625
:100BE00042E009F00895FF93EF937DDFEF91FF91CD
:100BF000B7CFFF93EF93FC0181918030B9F360DFB1
:100C0000FBCFFF93EF9368DFF1CFDF93CF93CDB7A7
:100C1000DEB72596A3DFCF91DF9108950E94EC16F1
:100C200083E00E949C170E9445134FEF6FEF80E016
:100C30000E94610F8BE00E94421360E070E0CB01E4
:100C40000E947A2A0C94862A81E0089581E0089512
:100C50000C94260608950C942A061F93CF93DF93D5
:100C600000D000D01F92CDB7DEB749835A836B8383
:100C700030918C0289819A81311114C0662359F018
:100C8000222349F00E94D428182F682F89819A8145
:100C90000E947B2803C00E94A728182F69817A81AF
:100CA000812F04C00E94D42869817A810F900F900F
:100CB0000F900F900F90DF91CF911F910C942B0705
:100CC000FC01262F408151816281738184810C94C3
:100CD0002D06CF93DF93EC0160E00E946006BE0119
:100CE000DF91CF910C942B060E9430090E9441188D
:100CF0000C94AF090C94AB0908950E9487230E94BD
:100D00007C062FEF84E39CE0215080409040E1F787
:100D100000C000000C94612C0F931F93CF93DF93BE
:100D20008C0161E00E946006EC01B8010E94280677
:100D3000882369F1B801CE010E94A217882339F1F6
:100D4000B801CE010E94061A882309F1B801CE012C
:100D50000E94581A8823D9F0B801CE010E94831B43
:100D60008823A9F0B801CE010E947215882379F07A
:100D7000F80182818823E1F1CF3D8CE5D80781F12C
:100D800060F4C115FCE5DF0721F40E947D06C0E098
:100D900036C0C130DC4579F02BC0CC35EDE5DE073F
:100DA00029F1CD35FDE5DF07F1F0CB35DD4501F566
:100DB0000E9484291DC080910203C82FC095C17074
:100DC000C0FB80F980930203CC2329F086E792E0F0
:100DD0000E946C05DCCF84E692E00E946C050FC097
:100DE0000E94EA2AD4CF0E947B2902C00E94872950
:100DF000C801DF91CF911F910F910C9424068C2F85
:100E0000DF91CF911F910F9108958295982F937341
:100E100044E0949F900111248C7C86958695282B24
:100E2000822F8575880F2A7A2695822B089508953A
:100E30000C94170781E008950C941A07CF93C82FDC
:100E40000E9418078C2F0E941C07CF91089580E004
:100E500090E0089508952CE3829FC0011124FC01C5
:100E600026E0729FE00DF11D1124E60FF11DEE0F3B
:100E7000FF1FE450FF4F859194910895880F991FAB
:100E8000FC01E957FD4F859194910895CF93DF932D
:100E90000E942B070E945808EC018115904508F02C
:100EA00043C0C11580E4D80708F0CBC0C03ED105CF
:100EB00028F5C03CD10508F0B3C0C83AD10578F494
:100EC000C53AD10508F0A4C0C130D10509F4ECC081
:100ED00008F4E8C0C430D10508F0E6C0E3C0CF3B59
:100EE000D10508F0DFC0C85AD0E0CC0FDD1FC35BCE
:100EF000DE4F0990D881C02DD464D6C0C11590E2D0
:100F0000D90750F4C11521E0D20708F0CDC0C83E82
:100F1000D10508F4C9C0C6C0C11580E3D80708F0E0
:100F200086C0CE019F707FC0C11595E5D90708F036
:100F300043C0C11524E5D20708F09AC0C11582E567
:100F4000D80708F5C11591E5D90708F07DC0CE0195
:100F500074E0969587957A95E1F783709C2F93704E
:100F600021E030E002C0220F331F9A95E2F73C687F
:100F7000382BCF70C695C69580E2C89FE00111243A
:100F8000C22BD32B91C09E01237033278C2F8695C3
:100F90008695C115D34508F05CC0C1E0D0E002C021
:100FA000CC0FDD1F2A95E2F720E2829FC0011124B9
:100FB000C82BD92BDC6878C0C11529E5D207A0F46D
:100FC000C11588E5D80708F058C0C11596E5D907BE
:100FD00008F068C08C2F0E94EC088F71C82FD0E0F9
:100FE000DC2FCC27D06260C0C1152AE5D20708F4F7
:100FF00049C0CE0190568115904208F053C08D2F04
:101000008F710E94EC08DD27D0628F71D82B4CC005
:10101000C55AD0E0C558DE4FC881D0E0D06444C086
:10102000CE01805C91090E943E07EC013DC0CE01DB
:101030009927D3FF03C0EC01D86C36C0EC01D06C0B
:1010400033C0DF70D06A30C0DC2FCC27C16FD06ACC
:101050002BC0C1E0D0E002C0CC0FDD1F2A95E2F723
:1010600020E2829FC0011124C82BD92BDA681CC052
:10107000DC2FCC27C46FD06A17C0DC2FCC27C06F01
:10108000D06A12C08C2F8F700E94EC0894E0D69525
:10109000C7959A95E1F7CF70D0E0DC2FCC27D069C7
:1010A000C82B02C0C0E0D0E0CE01DF91CF910895FF
:1010B0008238910569F1B0F48133910509F46DC06E
:1010C00048F48932910509F463C08A32910509F424
:1010D00069C008958533910509F455C08933910598
:1010E000B9F00895833E910569F138F4803E910589
:1010F000B1F0823E910509F10895863E9105A9F16E
:10110000873E9105B9F1843E910509F064C023C082
:101110002091110320FD4FC021FD4DC00895809105
:10112000110380FD44C08091120380FF44C0809170
:10113000110384FD42C083EE4DC08091110382FFF4
:1011400038C0F5CF8091110382FD33C08091120326
:1011500080FD31C0ECCF8091120381FF32C08091BD
:10116000110384FD2AC087EE35C08091110383FFEF
:1011700026C0F5CF8091110383FD21C08091120319
:1011800081FD1FC0ECCF8091110385FD1CC01DC0E7
:101190008091110385FD19C016C08091110386FD51
:1011A00016C017C08091110386FD13C010C089E3DB
:1011B00011C082EE0FC080EE0DC080E00BC086EE45
:1011C00009C084EE07C089E205C085E303C08AE256
:1011D00001C081E390E008959091110392FF0DC04A
:1011E000282F2871283019F4877F846006C0282FA3
:1011F0002471243011F48B7F886093FF0DC0282F59
:101200002871283119F4877E846106C0282F247143
:10121000243111F48B7E88612091120320FF0DC0D0
:10122000382F3871383019F4877F816006C0382F25
:101230003171313011F48E7F886021FF0DC0282F6D
:101240002871283119F4877E816106C0282F217109
:10125000213111F48E7E886194FD877E0895089572
:101260000E94492A811102C00E94EA2A0E94542A3F
:10127000809302030E945C2A9093120380931103CF
:101280000E942F090E94582A682F70E080E090E0A9
:101290000E947D276091ED027091EE028091EF0235
:1012A0009091F0020C94B527E82FF0E0E35EFC4F3C
:1012B00080810895CF92DF92EF92FF920F931F9358
:1012C000CF93DF9386E992E00E946C058DE1E82ED2
:1012D00083E0F82EC0E0D0E091E9C92E92E0D92E4B
:1012E00009E812E0DF93CF93DF92CF920E940506C8
:1012F0008EE892E00E946C05F70181917F010E94C7
:1013000005071F928F931F930F930E94050687E88E
:1013100092E00E946C0521968DB79EB708960FB695
:10132000F8949EBF0FBE8DBFCA30D105D9F6DF91AC
:10133000CF911F910F91FF90EF90DF90CF90089584
:1013400080EA8A95F1F7089500C008950C94A009E9
:1013500008950C94A8090C94A9090C94A8090C945C
:10136000AD09F894E82FE295EF70F0E031A1282F55
:101370002F7081E090E001C0880F2A95EAF7982F3E
:101380009095932391A392A1892B82A37894089599
:1013900008950C94C809EF92FF920F931F93CF9377
:1013A000DF93CDB7DEB760970FB6F894DEBF0FBE00
:1013B000CDBF0E949F0B80911401811131C0FE01AD
:1013C00031962AE0DF011D922A95E9F721E329836E
:1013D00022E32A8322E92B8321EF2C8324EF2D8320
:1013E000CF01EAE0F1E09E01255F3F4FDC014D9126
:1013F000CD014193A217B307C9F726E0E7E4F1E076
:10140000DE011B9601900D922A95E1F7FC01A4E004
:10141000B1E0CE01419621912D93E817F907D9F754
:1014200080911401811102C095E001C090E0909379
:10143000280385E0891B809327030AE011E0F80167
:1014400081918F010E94B109F1E00F301F07B9F7B8
:1014500004E011E08AE0E82E81E0F82ED8018D91B9
:101460008D010E94B109E016F106C1F7E3E1F3E056
:10147000ADE1B3E08DE193E011921D928E179F07CD
:10148000D9F785E00E94490B0E94740660960FB65A
:10149000F894DEBF0FBECDBFDF91CF911F910F91AA
:1014A000FF90EF900C94B30B0F931F93CF93DF93A8
:1014B00000D000D01F92CDB7DEB70E94870B60919D
:1014C0002803882309F442C08E010F5F1F4F85E077
:1014D000F80111928A95E9F7862F90E0B801835EB2
:1014E0009C4F0E94DD1B811116C08091FC018F5F13
:1014F0008093FC01863030F1E0912703F0E0E35E59
:10150000FC4FD801CE01069611921D92A817B9077B
:10151000D9F711E018C01092FC01A0912703B0E0A8
:10152000A35EBC4FF8019E012A5F3F4F10E08191FE
:101530009C91981711F08C9311E01196E217F30724
:10154000B1F701C010E00E947A060DC070E0635E42
:101550007C4F8091270390E0835E9C4F0E94191C72
:101560000E94C90910E0812F0F900F900F900F90EB
:101570000F90DF91CF911F910F9108958F929F92BD
:10158000AF92BF92CF92DF92EF92FF920F931F9391
:10159000CF93DF938AE0A82E81E0B82EC3E1D3E099
:1015A0009FE0E92E91E0F92E912C01E010E0650119
:1015B000F5018081F894E82FE295EF70F0E021A129
:1015C0008F70A80102C0440F551F8A95E2F7CA0127
:1015D000922F982B91A392A18095892382A378942E
:1015E0000E94A409E4E0F1E020E030E0812C419188
:1015F000A42FA295AF70B0E090968C9190E04F70C0
:1016000002C0959587954A95E2F780FD07C0802F27
:10161000022E01C0880F0A94EAF701C080E0882AF0
:101620002F5F3F4F2630310511F75FEFA51AB50A3E
:10163000F60180810E94B1090E94A609888188165E
:1016400019F0888281E001C080E0982A2196EA148E
:10165000FB0409F0ACCF6091280370E0635E7C4F1F
:10166000292D45E083E193E00E944A0B0E94540A31
:10167000992011F081E090E0DF91CF911F910F91BF
:10168000FF90EF90DF90CF90BF90AF909F908F90A2
:1016900008950895FF920F931F93CF93DF938C01CA
:1016A000F62ED72FC42F222349F081E08093FF012B
:1016B0000E94CA2B9093FE018093FD018091FF014F
:1016C0008823C1F08091FD019091FE010E94E22BE0
:1016D000069780F0EF2DFD2FD8014C2F50E0CD0163
:1016E000801B910B841795071CF48D918193F7CF84
:1016F0001092FF01DF91CF911F910F91FF900895FC
:1017000055985D9889B185FB882780F90895809167
:10171000000281110DC00E94EB33811102C082E0F2
:1017200001C081E080930002823011F40E94E63310
:1017300081E090910002913009F080E008950E94CC
:10174000800B809314018091140166E0882311F0CE
:1017500080E001C086E00E944F0C0E94870B81113F
:101760000C94B41B08950E94870B811102C00C9445
:10177000BA1B0895EF92FF920F931F93CF93DF93BD
:101780008B01682F11110AC0442329F0E82FF0E0E3
:10179000E158F84F6491762F862F75C0212F30E0E5
:1017A000E82FF0E0442321F0E158F84FE491F0E015
:1017B00046E0049FC0011124CFEFD0E0BE010E949B
:1017C00022344BEA4603C001479F900D1124800F3D
:1017D000911D800F911D982F990F890FAE01421B0B
:1017E000530B4E9FD0014F9FB00D5E9FB00D112443
:1017F0009B2F189FA0011124452F55278E01041BF4
:10180000150B0E9FA0010F9F500D1E9F500D112410
:101810007E01E81AF108E29E8001E39E100DF29E1F
:10182000100D1124212F3327C21BD30BCE9F900103
:10183000CF9F300DDE9F300D112462307105A9F06D
:1018400048F46115710569F061307105C9F48B2F99
:10185000752F0DC06430710581F058F06630710548
:1018600079F47E2F8B2F932F0DC0832F7B2F9E2FEC
:1018700009C08E2F7B2F952F05C08E2F732F02C08E
:101880007E2F852F692FDF91CF911F910F91FF90B0
:10189000EF90089541E00E94BA0B08950895E8E1A1
:1018A000F1E08083618308950E944A0C0895CF93EC
:1018B000DF93762FE901682F842F0E94540C7983DF
:1018C00068838A83DF91CF91089580912903282F1F
:1018D000269530E02115310519F48170826005C02C
:1018E0002B32310524F0817084658093290308959B
:1018F00088E090E00C941435CF92DF92EF92FF9243
:101900006B017C010E94650CB701A60188E090E0A4
:10191000FF90EF90DF90CF900C943235E9E2F3E046
:1019200083E0808311828FEF828383831482AAE411
:10193000B2E012968C911297836012968C9360811C
:101940007181828193810C947C0C8091020380FFD1
:1019500008C08DEC95E09F938F930E9405060F9031
:101960000F908091020380FF0FC080912903817046
:101970001F928F9380EB95E09F938F930E940506B3
:101980000F900F900F900F908091020380FF0FC077
:101990008091290386951F928F9385E995E09F9307
:1019A0008F930E9405060F900F900F900F908091DB
:1019B000020380FF0EC080912A031F928F938BE752
:1019C00095E09F938F930E9405060F900F900F90C4
:1019D0000F908091020380FF0EC080912B031F9215
:1019E0008F9381E695E09F938F930E9405060F9059
:1019F0000F900F900F908091020380FF0EC0809196
:101A00002C031F928F9387E495E09F938F930E94FE
:101A100005060F900F900F900F908091020380FFAA
:101A20000EC080912D031F928F938BE295E09F93C0
:101A30008F930E9405060F900F900F900F900895BE
:101A40008091290380FF02C08695089580E0089563
:101A500090912D03933018F49F5F90932D0388236A
:101A600051F06091290370912A0380912B0390918A
:101A70002C030C947C0C089581E00C94280D90911B
:101A80002D03992319F0915090932D03882351F041
:101A90006091290370912A0380912B0390912C036C
:101AA0000C947C0C089581E00C943F0D70E00C9434
:101AB0005118609119018091290380FF0AC080911B
:101AC000180123E0829FC0011124825D9C4F0C9479
:101AD000560D80911A0190911B01891780F7E82F0C
:101AE000F0E09F01220F331FE20FF31FE25DFC4F76
:101AF0001182108212828F5FF0CF9091290390FFA4
:101B000016C090911A0120911B01921770F4E92FD1
:101B1000F0E0DF01AA0FBB1FEA0FFB1FE25DFC4FE5
:101B20008183608342839F5FF0CF0C94590D0895A9
:101B3000CF93DF9300D01F92CDB7DEB790912903EA
:101B400090FF0AC09E012F5F3F4F0E94570C4B81B0
:101B500069818A810E947D0D0F900F900F90DF9117
:101B6000CF910895CF93DF93EC01EC81F0E0E55045
:101B7000FA4F4491E9E2F3E0628181810E94980D7D
:101B80008C818F5F8C83DF91CF910895CF93DF930A
:101B9000EC01E9E2F3E0438162818C810E94980DBF
:101BA0008C818F5F8C83DF91CF9108950F931F936A
:101BB000CF93DF9300D01F92CDB7DEB78C01809119
:101BC000010281110AC09E012F5F3F4F4FEF6FEF5F
:101BD0000E94570C8A8180930102F8018481813030
:101BE00051F028F0823061F4409101020AC08091E6
:101BF000010240E007C06091010240E080E003C0C4
:101C000040E080E060E00E947D0DF801848190E07A
:101C1000019663E070E00E94363484830F900F9049
:101C20000F90DF91CF911F910F9108954F925F9286
:101C30006F927F928F929F92AF92BF92CF92DF92DC
:101C4000EF92FF920F931F93CF93DF9300D01F92D9
:101C5000CDB7DEB7F82ED62EE42E622E9091290352
:101C600090FFC5C0E92FE695AE2FB0E0A258BE4F59
:101C70008C9180934A029E7F923061F49E012F5F87
:101C80003F4F8F2D0E94570C4B8169818A810E94A2
:101C90007D0D62C0823019F4E0902C035DC0863067
:101CA00019F4F0902A0358C08930D9F3893109F02A
:101CB00053C0E9518E2F8170782E81E0C72CC82641
:101CC000E695F0E0E550F94FA590B490412CBB2487
:101CD0009CE4892E93E0992E60911C014616D0F564
:101CE000042D10E00A9DC0010B9D900D1A9D900DD2
:101CF000112470E00E9422345F2C711002C0560E35
:101D000001C0561A8091020380FF11C0BF92AF92AA
:101D10001F92CF921F925F921F924F929F928F922B
:101D20000E9405060FB6F894DEBF0FBECDBF8091AE
:101D30001A01080F111D9801220F331F020F131FE4
:101D40009801225D3C4F4E2D6D2D852D0E94570C24
:101D50004394C2CF0E94590D80912A03F81208C003
:101D600080912B03D81204C080912C03E81629F02F
:101D700080914C02826080934C02F0922A03D092B0
:101D80002B03E0922C036620E9F060912903709107
:101D90002A0380912B0390912C030E947C0C80914C
:101DA000020380FF24C080912C031F928F938091A7
:101DB0002B031F928F9380912A031F928F9387E2A8
:101DC00093E00CC08091020380FF11C01F92EF923C
:101DD0001F92DF921F92FF9280E093E09F938F9378
:101DE0000E9405060FB6F894DEBF0FBECDBF0F9060
:101DF0000F900F90DF91CF911F910F91FF90EF9077
:101E0000DF90CF90BF90AF909F908F907F906F901A
:101E10005F904F900895E9E2F3E09181282F43818C
:101E2000628188E0890F0C94160E81E00C940B0FF0
:101E3000E9E2F3E09181282F4381628188EF890FE5
:101E40000C94160E81E00C94180FE9E2F3E0628125
:101E500021E1620F08F46FEF282F438181810C94F8
:101E6000160E81E00C94250FE9E2F3E0628121E196
:101E7000621B08F460E0282F438181810C94160EC8
:101E800081E00C94340FE9E2F3E0438121E1420F59
:101E900008F44FEF282F628181810C94160E81E0A7
:101EA0000C94430FE9E2F3E0438121E1421B08F483
:101EB00040E0282F628181810C94160E81E00C9401
:101EC000520F21E00C94160E20E00C94160EFF9297
:101ED0000F931F93CF93DF93EC01F12C0FEF10E0E2
:101EE00060911C01F616F0F480911A012F2D30E05C
:101EF000280F311DC901880F991F280F391F225D36
:101F00003C4F70E0C8010E943634962F8C8140917E
:101F10002C0360912B03F99E800D11240E94570C15
:101F2000F394DECF0E94590D9A818C8190FF02C0FC
:101F30008F5F01C081508C83DF91CF911F910F91F2
:101F4000FF9008958F929F92AF92BF92CF92DF92AF
:101F5000EF92FF920F931F93CF93DF93EC018A814F
:101F600080FF03C0BB24BA9402C0BB24B3948C810D
:101F700081110DC081E0B81206C080911C01815012
:101F80008093030202C01092030281E08C83A12C93
:101F90004CE0942E80911C01A81608F044C080915A
:101FA0001A01CA2CD12C8601080F111DC801880FF7
:101FB000991F080F191F025D1C4FF8011182108232
:101FC000128234E0E32EF12C812C80910302880DE3
:101FD0008D302CF0692D0E941434892F05C087FFA5
:101FE00003C090911C01890F082E000C990BC81694
:101FF000D90691F480912C038E9DA0018F9D500DE8
:1020000011245595479555954795980160912B0357
:1020100080912A030E94570C8B0CF1E0EF1AF10813
:10202000A1F6A394B7CF0E94590D8091030291E0CD
:10203000B9120EC0811107C080911C01815080939C
:1020400003021C820FC0815080930302BC820AC02D
:1020500090E0019660911C0170E00E9436348093FC
:1020600003028C83DF91CF911F910F91FF90EF902E
:10207000DF90CF90BF90AF909F908F9008951F9367
:10208000CF93DF93EC018C81811109C081E08C83B7
:102090001092020292E090931701809316018091B2
:1020A0001A0190911B01891770F4E82FF0E09F014D
:1020B000220F331FE20FF31FE25DFC4F11821082EB
:1020C00012828F5FF0CF10E060911C011617C0F5EF
:1020D000E12FF0E070E0CF010E94363420911A0128
:1020E000820F20910202022E000C330B90E0E217C7
:1020F000F307CCF020911701022E000C330B2E17A2
:102100003F078CF09C01220F331F820F931F9C010D
:10211000225D3C4F40912C0360912B0380912A0358
:102120000E94570C0BC0FC01EE0FFF1F8E0F9F1F6C
:10213000FC01E25DFC4F1182108212821F5FC4CF4E
:102140000E94590D8091160120910202280F2093C0
:10215000020290911701980F9093170119165CF4E1
:10216000022E000C330B40911C0150E041505109EC
:102170002417350734F0819580931601813009F4D6
:102180001C82DF91CF911F9108958F929F92AF9201
:10219000BF92CF92DF92EF92FF920F931F93CF9354
:1021A000DF938C01FC014481C42FD0E09E01DE014D
:1021B0000E947A349B01AC010E9490346B017C0137
:1021C000E0E2F0E0EC1BFD0BA5E5B0E09B01AC010B
:1021D0000E9490344B015C019F01DF010E94723428
:1021E0009B01AC010E949B349B01AC012C0D3D1D59
:1021F0004E1D5F1DC501B4010E944A34C22FD22F6B
:102200002A3228F4F3E02F9F900111240DC025E518
:1022100030E02C1B3109C901880F991F280F391F85
:1022200037FF02C02F5F3F4F35952795C22FC095CE
:10223000F12C85E5E82EED1A80911C01F816C8F402
:10224000F1FC02C08E2D01C08D2F90911A012F2D0F
:1022500030E0290F311DA901440F551F240F351FF0
:10226000225D3C4F4C2F60912B030E94570CF3943E
:10227000E3CF0E94590DF8018481811102C091E0E1
:1022800003C0803219F49FEF9093150190911501CE
:10229000890FF8018483DF91CF911F910F91FF90F7
:1022A000EF90DF90CF90BF90AF909F908F90089568
:1022B0000F931F93CF93DF93EC0100E010E0809128
:1022C0001C01282F30E00217130724F590911A0102
:1022D0009801290F311DA901440F551F240F351FE7
:1022E000225D3C4F869590E04C81081719071CF43D
:1022F000442331F002C0411103C040912C0301C0BE
:1023000040E060912B0380912A030E94570C0F5FDD
:102310001F4FD5CF0E94590D8C8190E0019681709E
:1023200099278C83DF91CF911F910F9108957F9210
:102330008F929F92AF92BF92CF92DF92EF92FF92D5
:102340000F931F93CF93DF93FC018280748081E011
:102350008483EBEFF5E09490EAE7F6E0E491A12CBA
:10236000F5E0BF2ECC24CA94D12CE9190E2F10E031
:1023700080911C01A81608F0A2C0EA2CF12C22E0E2
:10238000281568F0BE9CF001BF9CF00D1124E95F98
:10239000FD4F80912A03808380912B0381837110EC
:1023A0000AC0BE9CF001BF9CF00D1124E95FFD4FF7
:1023B000138212826AC0BE9CE001BF9CD00D112422
:1023C000C95FDD4F8B818823F9F081508B832FEF1C
:1023D000829FC00111246C8170E00E942234FB01B5
:1023E000FF27E550FA4F8491E82FE9192FEFE29F7C
:1023F000C0011124B8010E94223480912C03689FEF
:10240000B00111247A8341C00E94EF3420912C0343
:102410002695215830E0A901440F551F322F22275D
:10242000240F351F232F33278217930774F582E07B
:10243000881588F40E94EF34B6010E9436348883F0
:102440000E94EF3420912B032695622F70E00E94AA
:102450003634280F2983BE9CF001BF9CF00D112457
:10246000E95FFD4F128280912C03843120F0893C7A
:1024700018F088EC01C084E1BE9CF001BF9CF00D17
:102480001124E95FFD4F8483838380911A019701B2
:10249000280F311DC901880F991F280F391F225D90
:1024A0003C4FBE9CF001BF9CF00D1124E95FFD4F35
:1024B0004281618180810E94570CA39459CFDF91A2
:1024C000CF911F910F91FF90EF90DF90CF90BF9031
:1024D000AF909F908F907F900C94590D80914C02FB
:1024E000089510924C02089525E0E9E2F3E0DC0142
:1024F00001900D922A95E1F720914A0230914B020A
:1025000040914C02FC012583368347830895EAE419
:10251000F2E01182828184608283089560912903B0
:10252000669570E04BE050E08DE191E00E94FF3451
:10253000892B19F481E080934B020E94582C9093D0
:1025400044028093430280914C02846080934C0249
:102550008091020380FF08C087EE92E09F938F93E3
:102560000E9405060F900F90089510924B028091E3
:102570004C02846080934C028091020380FF08C06B
:102580008EEC92E09F938F930E9405060F900F9020
:1025900008959091290390FF59C09170811102C054
:1025A000926006C08B3210F0946502C0880F982BA1
:1025B0009093290380914C02816080934C026623A2
:1025C000B1F06091290370912A0380912B039091BF
:1025D0002C030E947C0C8091020380FF1BC0809121
:1025E000290386951F928F9381E794E00BC0809119
:1025F000020380FF0FC08091290386951F928F935D
:1026000083E594E09F938F930E9405060F900F90AF
:102610000F900F9060912903669570E04BE050E0B9
:102620008DE191E00E94FF34892B19F00E94B512D0
:1026300002C00E948E1281E08093460240912C03DA
:1026400060912B0380912A030C94640F0895682FE6
:1026500090912903969581E0890F8B3208F081E0F3
:102660000C94C91281E00C942713682F90912903D0
:1026700096958FEF890F09F48AE20C94C91281E0D4
:102680000C94351361E00C94C91280912903816088
:10269000809329038091020380FF0DC01F9281E087
:1026A0008F9385EE93E09F938F930E9405060F9082
:1026B0000F900F900F908091290386950C944213F0
:1026C00060E00C94C91280914902811165C080912B
:1026D000020380FF08C084E195E09F938F930E94DE
:1026E00005060F900F908091020380FF08C08EEFC7
:1026F00094E09F938F930E9405060F900F900E9485
:10270000492A811110C08091020380FF08C086ED24
:1027100094E09F938F930E9405060F900F900E9464
:10272000EA2A0E948E0C0E94780C60932903709311
:102730002A0380932B0390932C0380914C02836097
:1027400080934C026E7FC1F48091020380FF08C029
:102750008DE894E09F938F930E9405060F900F9051
:102760000E948E0C0E94780C6093290370932A03B8
:1027700080932B0390932C030E94650C0E94A50C60
:102780000E9487128091290380FF03C086950E94D2
:10279000601381E0809349020895809129038E7F20
:1027A000809329036091290370912A0380912B0360
:1027B00090912C030E947C0C8091020380FF0FC03B
:1027C0008091290381701F928F938DEA93E09F93EC
:1027D0008F930E9405060F900F900F900F900E940C
:1027E000B51280914C02816080934C022FEF80E7FC
:1027F00092E0215080409040E1F700C000000C942E
:10280000590D8091020380FF10C0809129038095AB
:1028100081701F928F938CE194E09F938F930E941D
:1028200005060F900F900F900F908091290380FD67
:102830000C94CD130C944513809129038E7F8093C3
:1028400029038091020380FF0CC01F921F9283E72F
:1028500093E09F938F930E9405060F900F900F9027
:102860000F900E94B51280914C02816080934C02BF
:102870002FEF80E792E0215080409040E1F700C0C8
:1028800000000C94590D1F93CF93DF93EC01162F8A
:102890008F8180FF0FC0888180FF0AC0809129034B
:1028A000816080932903888186950E94C91202C0A5
:1028B0000E941C148F8181FF06C0212F4B816A81E9
:1028C00089810E94160E8F8182FF08C08E81882325
:1028D00019F00E948E1202C00E94B5128F8183FFF0
:1028E00003C081E080934602DF91CF911F9108954C
:1028F000EF92FF920F931F93CF93DF9380914B0240
:10290000882309F4CDC080914A02E0912903E6951D
:10291000E81BE0934502823049F4F0E0E950FA4FB9
:10292000E491CE2FD0E002EB1DE059C0863049F48F
:10293000F0E0EC50FA4FE491CE2FD0E006EC1DE031
:102940004EC0893051F4E695F0E0EF50FA4FE49133
:10295000CE2FD0E007E61FE042C08F3051F4E6955D
:10296000F0E0E251FA4FE491CE2FD0E002EA1FE00E
:1029700036C0853149F4F0E0E551FA4FE491CE2FAD
:10298000D0E00FE310E12BC08831D9F0833239F465
:10299000E9EEF5E0C591D49106ED1DE020C084324A
:1029A000A9F08532C1F48E2F63E00E940834E92F2C
:1029B000F0E0EA51FA4FE491CE2FD0E007E911E1BF
:1029C0000EC0C8E2D0E005EC10E109C0C4EFD1E0D0
:1029D00008E511E104C0C0EDD7E00EE41CE08091F1
:1029E0004602882361F0109246020E94582C909370
:1029F00044028093430210924802109247020E94C0
:102A0000582C2091430230914402AC01421B530BDD
:102A10009A012F3F3F4708F043C02091060222232E
:102A200011F1109206022091040230910502821BDE
:102A3000930B8F3F9F47B8F4205D3A4830930502CF
:102A4000209304028091020380FF08C085EA92E08F
:102A50009F938F930E9405060F900F9080914C02D8
:102A6000886080934C02E0904702F0904802E09129
:102A70004302F0914402CE0FDF1FD0934402C09373
:102A8000430283E492E0F801099580914702909116
:102A90004802892B29F4EF2819F081E0809306027F
:102AA000DF91CF911F910F91FF90EF9008958823B0
:102AB00011F0FA0101C0FB010994CF93DF93C82FF5
:102AC000D62F0E94200D8C1740F00E94200D8D17EC
:102AD00020F4DF91CF910C9432138C2FDF91CF91A2
:102AE0000C9442131F93CF93DF93FB0112811111BA
:102AF000C1C0EC010E948A298272CD3CFCE5DF074F
:102B000009F49AC008F043C0C73CECE5DE0709F4BD
:102B10007FC0D8F4C43C9CE5D90709F46DC038F4F3
:102B2000C33CDC4509F0A5C00E940114A3C0C53C0C
:102B30009CE5D90709F465C0C63CDC4509F099C09D
:102B400042E25FE065E17FE060C0CA3CFCE5DF0790
:102B500009F468C070F4C83CECE5DE0709F45DC018
:102B6000C93CDC4509F085C041E35FE060E47FE0FB
:102B70004CC0CB3C9CE5D90709F459C0CC3CDC45A2
:102B800009F077C043E55DE06CE37DE03EC0C23D07
:102B9000FCE5DF0709F45DC098F4CF3C9CE5D9075C
:102BA00009F451C008F44DC0C03DFCE5DF0709F44D
:102BB0004DC0C13DDC4509F05CC06EE089E056C007
:102BC000C53D9CE5D90709F44AC058F4C33DFCE56E
:102BD000DF0709F441C0C43DDC4509F04AC088E183
:102BE00042C0C63D9CE5D907E9F1CE35DD4509F087
:102BF00040C06AE285E23AC04FE353E162E373E129
:102C000004C042E353E16FE373E10E94571532C001
:102C100045E15FE062E27FE0F8CF40E45FE061E33E
:102C20007FE0F3CF4EE55FE06FE47FE0EECF4FE46F
:102C30005FE06EE57FE0E9CF4CE35DE063E57DE0DA
:102C4000E4CF81E010C065E082E010C068E086E07B
:102C50000DC064E18FE00AC067E185E107C062E270
:102C600089E104C083E20E94421304C00E945D1502
:102C700001C011E0812FDF91CF911F9108958091C4
:102C800052038170089586E090E00C940C35682F13
:102C900086E090E00C942035809152038470896224
:102CA000809352030C944716809152038695869523
:102CB000869508950E94492A811104C00E94EA2A3B
:102CC0000E944C160E94431680935203282F26958B
:102CD0002695269530E02630310524F087708862ED
:102CE000809352038091520380FF04C0869586959D
:102CF000869501C080E00C94D71720915203822F53
:102D0000869586958695482F50E04530510554F4B8
:102D10008F5F982F990F990F990F822F8770892BAA
:102D200080935203809152038160809352030E94EA
:102D300047168091020380FF11C08091520386954F
:102D4000869586951F928F9387E697E09F938F9342
:102D50000E9405060F900F900F900F9080915203E4
:102D60008695869586950C94D71780915203982F57
:102D7000969596959695A1F0915E990F990F990F5A
:102D80008770892B80935203887F91E009F490E04B
:102D90008091520390FB80F9809352030E94471662
:102DA0008091020380FF11C0809152038695869521
:102DB00086951F928F938FE497E09F938F930E9445
:102DC00005060F900F900F900F90809152038695FB
:102DD000869586950C94D7178091520380FD1FC06D
:102DE000816080935203813019F489E0809352030B
:102DF000809152030E9447168091020380FF08C011
:102E000087E297E09F938F930E9405060F900F90A3
:102E1000809152038695869586950C94D7170895D0
:102E20008091520380FF14C08E7F809352030E94D2
:102E300047168091020380FF08C084E197E09F93CA
:102E40008F930E9405060F900F9080E00C94D71787
:102E50000895CF93C0915203C1708091020380FF07
:102E60000CC01F92CF9389E397E09F938F930E94AA
:102E700005060F900F900F900F90CC2319F0CF9173
:102E80000C941017CF910C94EC1690915203892F4B
:102E90008695869586958F5F8F719770863038F40A
:102EA000880F880F880F892B8093520302C090935C
:102EB000520380915203887F91E009F490E0809161
:102EC000520390FB80F9809352030E944716809131
:102ED000020380FF11C080915203869586958695E6
:102EE0001F928F9380E097E09F938F930E94050637
:102EF0000F900F900F900F908091520386958695BA
:102F000086950C94D717863008F085E0909152038F
:102F10009770282F220F220F220F922B909352038B
:102F2000987F21E009F420E09091520320FB90F972
:102F3000909352030C94D7170E94831780915203E9
:102F40000C9447169C01FB018281882349F12E3B9A
:102F5000FCE53F07C9F040F42C3BECE53E0769F087
:102F60002D3B3C4561F00895203C9CE5390791F0EC
:102F700070F0213C3C4589F0089585E001C080E077
:102F80000E949C1780E008950E94B516FBCF0E9416
:102F90007D16F8CF0E942917F5CF0E944517F2CF72
:102FA00081E00895259A2D9808952D980895CF923F
:102FB000DF92EF92FF92CF93C82F863050F48111A9
:102FC00009C0809180008F77809380000E94D51780
:102FD00006C0C5E0809180008068809380002C2F1F
:102FE00030E0AFEFBFEF0E947A3425E030E040E000
:102FF00050E00E944A34B42FA32F922F8827492FE4
:103000005A2F6B2F7727CA014C3724E1520728F437
:1030100069E070E00E94223429C0DB01CA018A50B5
:10302000974DAF4FBF4F6627782F892F9A2F25EFE7
:1030300038E241E050E00E944A3469017A01CA0155
:10304000B9010E94F8339B01AC01C701B6010E948F
:10305000F833BB27A92F982F872F009721E0A207CD
:10306000B10511F0BC0102C06FEF7FEF70938900D2
:1030700060938800CF91FF90EF90DF90CF900895FC
:1030800008950E94D21782E88093800089E180939E
:1030900081008FEF9FEF90938700809386000C94C0
:1030A0005A16569A2BB12F7B3BB130644FB7F89428
:1030B000FC01CB01880F991F680F791F6E0F7F1FCE
:1030C000E617F70789F0819198E03BB9000000C04E
:1030D00087FF2BB9880F000000C000C000C02BB9CB
:1030E00000C09A9591F7ECCF4FBF8FE594E0019720
:1030F000F1F700C00000089581E008950C947C1859
:1031000080911401882309F447C020912901A22F3E
:10311000A295AF70B0E091963C9191972F7081E0AD
:1031200090E0AC01022E01C0440F0A94EAF7542F3C
:103130005095352391963C93919792963C91929716
:10314000432B92964C93929740912801E42FE2955D
:10315000EF70F0E031A14F70042E01C0880F0A9487
:10316000EAF7982F9095932391A392A1892B82A39C
:1031700090968C9190E002C0959587952A95E2F7FC
:10318000817020A130E002C0359527954A95E2F77D
:1031900020FD09C090E008C087EF8093290186EFE9
:1031A00080932801B2CF92E0892B809352029091B4
:1031B000140181E0982790934E02891B80934D0261
:1031C0000895CF93E09152025E2F550F550F209135
:1031D0002901E22FE295EF70F0E080A190E02F70DE
:1031E00002C0959587952A95E2F7817099274091BD
:1031F0002801E42FE295EF70F0E020A130E04F705D
:1032000002C0359527954A95E2F7F901E170FF274D
:1032100020FF02C0E2E0F0E0E82BF92BE52BE09381
:103220005202C0914E02EF70F0E0E755FE4F9081E0
:1032300080915102890F8093510284306CF0EC2F01
:10324000F0E0E15BFD4F80818F5F808360E08C2F39
:103250000E947E1821E001C020E0809151028D3F44
:1032600064F4EC2FF0E0E15BFD4F808181508083BE
:1032700061E08C2F0E947E1821E080915102082E7F
:10328000000C990B64E070E00E9436348093510288
:10329000822FCF910895E0914E02F0E0E15BFD4F67
:1032A0002081FC0120830895FF920F931F93CF93F9
:1032B000DF93D0914D020D2F10E0015B1D4FFC01FB
:1032C000C081F8018081C81BFC2E80E01F145CF4D3
:1032D000FA94F80180818F5F808360E08D2F0E94D7
:1032E0007E1881E0F3CF9C2FC7FD90E0C91BCC2353
:1032F00059F0CF5FF80180818150808361E08D2F8C
:103300000E947E1881E0F3CF882339F0DF91CF91BE
:103310001F910F91FF900C949C1EDF91CF911F91F4
:103320000F91FF9008950F931F93CF93DF93C42FB6
:10333000D22FFC0182818823C9F0409355020E945C
:10334000CA2B909354028093530280E28C0F8830F2
:1033500008F057C0C77081E001C0880FCA95EAF72E
:10336000DF91CF911F910F910C940921809155020B
:10337000481330C080915302909154020E94E22B76
:10338000883C910538F510E21D0FCD17B9F080E2A9
:103390008C0F883040F4C77081E001C0880FCA9557
:1033A000EAF70E941021183028F581E09D2F9770D0
:1033B00001C0880F9A95EAF70E940921802F0E9488
:1033C00000211830F0F4D77081E001C0880FDA9541
:1033D000EAF70AC080E28C0F883098F4C77081E069
:1033E00001C0880FCA95EAF7DF91CF911F910F9125
:1033F0000C941021802FDF91CF911F910F910C948D
:103400000021DF91CF911F910F9108950F939C019F
:10341000CB01243F4CE5340731F188F4293DFCE52C
:103420003F07D9F02A3D4CE5340779F1283D3C456A
:10343000A9F506E221EE41EE68ED7CE52BC0263FC2
:10344000FCE53F07E1F0A8F0273F3C4539F507E2EE
:1034500025EE46EE67EF7CE51DC007E225EE45EE62
:1034600069ED7CE517C006E221EE40EE64EF7CE5F5
:1034700011C007E225EE44EE65EF7CE50BC006E2E5
:1034800021EE42EE66EF7CE505C008E221E045EE64
:103490006AED7CE50E94931980E008C0FC018281FE
:1034A000882319F01092550201C081E00F91089510
:1034B000CF93DF93EC01FB018281882309F41FC1C4
:1034C000C230FCE5DF0708F41BC1C6319CE5D90713
:1034D00038F09E012B5F3C452930310508F010C1C2
:1034E0000E945C2A9093120380931103C031ECE593
:1034F000DE0709F4C3C008F041C0C8308CE5D80726
:1035000009F49AC0F0F4C430ECE5DE0709F487C092
:1035100068F4C2308CE5D80709F477C0C330DC45C5
:1035200009F0E3C080911103826076C0C630ECE5FB
:10353000DE0709F46EC008F07BC08091110388603B
:103540006BC0CC308CE5D80709F485C068F4CA306C
:10355000ECE5DE0709F474C008F079C00E94872307
:1035600080911103806858C0CE308CE5D80709F4EB
:1035700076C008F07FC0809111038BC0CC3FECE592
:10358000DE0709F44FC018F5C3318CE5D80709F4FC
:103590007DC078F4C131ECE5DE0709F473C0C231B7
:1035A000DC4509F0A2C00E948723809111038F7728
:1035B00033C0C5318CE5D80709F472C008F486C061
:1035C000CB3FDC4509F091C0809112033EC0C1158C
:1035D000FDE5DF0709F45FC058F4CE3F9CE5D9074D
:1035E00009F444C008F43FC08091120382602DC0EA
:1035F000C230FDE5DF0709F475C008F45DC0C330D3
:10360000DD4509F072C080E06EC0809111038160D9
:1036100003C08091110380618093110366C0809183
:10362000110311C0809112038260809312035DC068
:10363000809111038062F0CF809111038064ECCF00
:103640008091110388608460E7CF8160EECF809124
:1036500011038E7FE1CF809111038D7FDDCF8091AB
:103660001103877FD9CF8091120318C08091120374
:103670008D7FDBCF809111038F7ECECF80911103A0
:103680008F7DCACF809111038F7BC6CF80911103AC
:10369000877F8B7FC1CF809112038D7F8E7FC5CFB7
:1036A0008091110382FB222720F991E0922790FB61
:1036B00082F990FB83F9B0CF80911203982F9095F7
:1036C00091708E7F892B90FB81F9AFCF0E94872369
:1036D0008091110387FB222720F991E0922790FB2C
:1036E00087F99ACF81E00E94EC2A80911103909192
:1036F00012030E946D2A0E94872380E001C081E0AE
:10370000DF91CF910895CF93DF9386319C4541F5AA
:10371000EB010E948A29982F8A8120913A013091E9
:103720003B01882379F09A7A81E009F480E0809364
:103730005602911102C069E201C065E3C9010E940D
:10374000332B0AC080915602811102C069E201C088
:1037500065E3C9010E94352B0E94DC2980E001C08D
:1037600081E0DF91CF91089562E070E08AE291E01C
:103770000C949E1C62E070E08AE291E00C94A71C1D
:103780000E946E12882361F084E692E00E94741217
:1037900081E090E00E94801D892B11F40C9471123D
:1037A000089580916302883039F460E084E692E005
:1037B0000E944314109263020895CF93DF93D62F93
:1037C000C72F0E94C01B80E090E00E94801D892BC3
:1037D00061F5ED2FFC2F80E090E0DC01A35ABD4F96
:1037E0002C912193019685309105B9F70E943F16DF
:1037F000882319F00E94541601C080E080935C0277
:1038000082E692E00E9454190E943D2CDC01CB011B
:103810000296A11DB11D8093580290935902A09366
:103820005A02B0935B0281E001C080E0DF91CF914A
:103830000895CF93DF93D62FC72F0E94D11B60919D
:1038400058027091590280915A0290915B020E9435
:10385000202CED2FFC2F80E090E02191DC01A35A79
:10386000BD4F2C93019685309105B9F780915C028C
:103870000E94D71782E692E0DF91CF910C944B190A
:103880008EE1489B02C08150E1F7489BFECF08952E
:10389000589880E28A95F1F7589A0895FC012AE039
:1038A0002A95F1F790E020E080E031E0261779F0EA
:1038B00040E14A95F1F7880F489B02C08160932749
:1038C00000C0000040E14A95F1F72F5FEFCF20E103
:1038D0002A95F1F729B100C0000030E13A95F1F7DF
:1038E000217092272081920F90830895EF92FF928A
:1038F0000F931F93CF93DF931F92CDB7DEB719823B
:103900008C017C01E60EF11C0E151F0559F00E947A
:10391000401C68E0CE0101960E944E1CF801819384
:103920008F01F2CF81E09981911180E00F90DF91BA
:10393000CF911F910F91FF90EF90089590936E0299
:1039400080936D0260936C02509A589A08959093F8
:103950006E0280936D0260936C025098589AE89AB8
:10396000E9E6F0E080818C7F80830895615091E0EA
:1039700001C0990F6A95EAF720E031E0992361F0E0
:10398000492F482319F0589A232701C0589840E23C
:103990004A95F1F79695F2CF222311F0589A01C07B
:1039A000589880E28A95F1F758980895FF920F93FE
:1039B0001F93CF93DF93EC018C01060F111DC017ED
:1039C000D10741F0F9900E94481C68E08F2D0E94B9
:1039D000B61CF5CFDF91CF911F910F91FF90089505
:1039E0001F920F920FB60F9211240F931F932F93D4
:1039F0003F934F935F936F937F938F939F93AF9377
:103A0000BF93EF93FF93CF93DF931F92CDB7DEB7B2
:103A100019820E94401C67E0CE0101960E944E1C54
:103A2000382F369536953695932F96959570232F8A
:103A30002570920F292F2370969596958770920F77
:103A4000891348C08981811145C080916C02831718
:103A500008F440C080E18A95F1F7589A509AA2E0A4
:103A6000AA95F1F700C000916D0210916E02B8E0C6
:103A70003B9F000D111D11245898F80165816623A4
:103A800021F0868197810E94D61C0E94481CF0E19B
:103A9000FA95F1F758985098589A80E18A95F1F77D
:103AA000D80112966C911297662369F013968D9146
:103AB0009C9114970E94761CD801ED91FC91811184
:103AC00005C082E004C0D801ED91FC9188E08083BC
:103AD0000E94401C0F90DF91CF91FF91EF91BF9119
:103AE000AF919F918F917F916F915F914F913F9196
:103AF0002F911F910F910F900FBE0F901F9018954F
:103B00000F931F93CF93DF9320916C0230E028171F
:103B100039070CF471C09C0193E0220F331F9A9572
:103B2000E1F7C0916D02D0916E02C20FD31FF894DD
:103B3000509A589845E04A95F1F70000982F9695CD
:103B400095708570890F982F937086958695890F4B
:103B50008901082B0E94481C84E08A95F1F700C077
:103B600067E0802F0E94B61C40E14A95F1F750981B
:103B7000589A489902C000C0FCCF87E090E0489B6B
:103B80000EC0019751F4509A589AE881F98181E06A
:103B90008083789481E090E031C000C0F0CF6D81E7
:103BA000662381F08E819F810E94761C81110AC05C
:103BB000509A589AE881F98182E08083789482E073
:103BC00090E01CC00E94401C80E28A95F1F7589852
:103BD000509A40E14A95F1F76A81662321F08B8182
:103BE0009C810E94D61C0E94481CE881F9811082A9
:103BF000789480E090E002C084E090E0DF91CF9183
:103C00001F910F9108959093740280937302089509
:103C1000E0917302F0917402309721F00190F081ED
:103C2000E02D099480E00895EF92FF920F931F9387
:103C3000CF93DF93E0917302F09174023097B1F16A
:103C40008C010280F381E02D09958091020382FFAF
:103C50002DC080FF04C087E898E00E946C05E80151
:103C600018E081E8E82E88E0F82E8091020380FFBA
:103C70000BC088811F928F93FF92EF920E940506DE
:103C80000F900F900F900F90115021961111EDCFC2
:103C90008091020380FF0AC08FE798E0DF91CF9107
:103CA0001F910F91FF90EF900C946C05DF91CF91D5
:103CB0001F910F91FF90EF90089520917102309124
:103CC00072022817390771F0909372028093710283
:103CD000E0917302F0917402309721F00680F78131
:103CE000E02D0994089520916F02309170022817F9
:103CF000390771F09093700280936F02E091730224
:103D0000F0917402309721F00084F185E02D099440
:103D100008950E94D62B6093880270938902809345
:103D20008A0290938B026093840270938502809341
:103D300086029093870208950E94D62B6093880292
:103D40007093890280938A0290938B026093800221
:103D5000709381028093820290938302089585B7C5
:103D6000806885BF85B7806885BF08950C94870BF0
:103D700008950C94B81E0C94B81E0C94BB1E0C94A1
:103D8000B81E0C94BF1E0C94B81E0E94AF1E87E292
:103D90009EE20E94852C0E94C31E0C94C11E0E94AC
:103DA000B91E0C94B81E0E94C12B0E94172C0E94B1
:103DB000CB090E945A160E9463130E9480180C942B
:103DC000BD1ECF93C82F8091020382FF1EC080FFCB
:103DD00004C080EA98E00E946C058091020380FF95
:103DE0000CC01F92CF938BE998E09F938F930E9412
:103DF00005060F900F900F900F908091020380FFA7
:103E000004C089E998E00E946C058C2FCF910C9436
:103E10001E079F92AF92BF92CF92DF92EF92FF92D6
:103E20000F931F93CF93DF93CDB7DEB72A970FB6CB
:103E3000F894DEBF0FBECDBF0E94BE0A81110E9462
:103E4000891E86E7A82E82E0B82E00E010E0902EB2
:103E5000802F0E945409D82EF501C1905F01C82619
:103E6000B1F40F5F1F4F0A30110589F78FEF898377
:103E70008A831B820E94CA2B8160782F9D838C834A
:103E800049815A816B818D810E94AE1F2FC0809124
:103E9000020381FD0E945A09E12CFF24F3948C2D2A
:103EA0008F21F1F00E94B61E882399F0EE829F8246
:103EB000DF2081E009F480E088870E94CA2B8160BE
:103EC000782F9A8789874E815F8168858A850E94CD
:103ED000AE1FF801EA58FD4F8081F826F08206C037
:103EE000E394FF0CF6E0EF12DACFBBCF0E94781418
:103EF0000E9440180E94E11881110E949C1E0E949D
:103F0000081E909175028917B9F00E94081E8093CF
:103F100075022A960FB6F894DEBF0FBECDBFDF91B3
:103F2000CF911F910F91FF90EF90DF90CF90BF90B6
:103F3000AF909F900C94E11E2A960FB6F894DEBFC6
:103F40000FBECDBFDF91CF911F910F91FF90EF90EA
:103F5000DF90CF90BF90AF909F900895DF92EF9247
:103F6000FF920F931F93CF93DF93CDB7DEB72B97BD
:103F70000FB6F894DEBF0FBECDBFF42E052F162F5F
:103F8000E72ED82E61110E94AA29FE01319686E003
:103F9000DF011D928A95E9F77E2D4F2D502F612F5D
:103FA0008D2D9E810E9440262B960FB6F894DEBF81
:103FB0000FBECDBFDF91CF911F910F91FF90EF907A
:103FC000DF900895FC01808191810E941629089557
:103FD000CF93882309F49CC0C82F8238C1F40E9473
:103FE000081E81FD95C069E380913A0190913B01E3
:103FF0000E94332B0E94DC292FEF81EE94E02150A8
:1040000080409040E1F700C0000069E319C08338A8
:1040100001F50E94081E80FD7BC063E580913A0196
:1040200090913B010E94332B0E94DC292FEF81EEFF
:1040300094E0215080409040E1F700C0000063E52B
:1040400080913A0190913B010E94352BCF910C94C5
:10405000DC298438C1F40E94081E82FD59C067E43F
:1040600080913A0190913B010E94332B0E94DC2900
:104070002FEF81EE94E0215080409040E1F700C0A6
:10408000000067E4DDCF8CEF8C0F813AD0F46C2F09
:1040900080913A0190913B010E94FD2A882349F0CA
:1040A0006C2F80913A0190913B010E94352B0E9428
:1040B000DC296C2F80913A0190913B010E94332BB7
:1040C000C5CF80E28C0F883048F4C77081E001C012
:1040D000880FCA95EAF70E948D29B8CFEBE5EC0F5F
:1040E000E33040F4F0E0E951FE4F808190E0CF9161
:1040F0000C945D1EC85AC73158F4EC2FF0E0EE0F57
:10410000FF1FE754FE4F80819181CF910C94731E65
:10411000CF910895882309F45BC0682F823879F421
:104120000E94081E81FF54C069E380913A0190917A
:104130003B010E94332B0E94DC2969E310C08338C5
:10414000B1F40E94081E80FF43C063E580913A01EC
:1041500090913B010E94332B0E94DC2963E5809102
:104160003A0190913B010E94352B0C94DC29843854
:1041700079F40E94081E82FF2BC067E480913A0107
:1041800090913B010E94332B0E94DC2967E4E7CF2A
:104190008CEF860F813A18F380E2860F883048F45E
:1041A000677081E001C0880F6A95EAF70E94932941
:1041B000DCCF8BE5860F833020F480E090E00C9418
:1041C0005D1E685A673120F480E090E00C94731E05
:1041D00008951F93CF93DF93182FEB010E94E81FE0
:1041E000209741F08FE99FE00197F1F700C00000B0
:1041F0002197F6CF812FDF91CF911F910C948A20C8
:10420000893319F060E070E002C060E570E00C9462
:10421000E920882321F00E948D290C94DC2908953F
:10422000882321F00E9493290C94DC290895CF92D1
:10423000DF92EF92FF920F931F93CF93DF937C0156
:10424000062FC72FFC01D281158112951F700E9485
:104250004E29882399F0DD2389F08C2F807F8034CC
:1042600021F080E2800F883048F082E00E942C2A02
:104270000E944E2991E0D82ED92601C0D12CCC2EF7
:10428000C2948FE0C8228C2D90E0FC01EA5AFF4FC7
:104290000C946C348C2F807FCF70882311F0C295E2
:1042A000C07FDD2399F0CC2309F482C180E2800F26
:1042B000883010F0011104C08C2F0E948D2903C09A
:1042C0008C2F0E949D290E94DC2972C1802F0E94A0
:1042D0008A20CC2309F491C180E2800F883010F04D
:1042E000011104C08C2F0E94932903C08C2F0E94BF
:1042F000A3290E94DC2981C18C2F807FCF7080325E
:1043000011F0C295C07F002319F00130C9F022C01E
:10431000DD2371F0112341F0113031F40E94BD29E9
:104320008C2B0E94C52969C10E94BD298C2B1DC000
:10433000112319F0113009F460C10E94D22925C05F
:10434000DD2321F0163008F058C10EC0153008F0FA
:1043500054C11BC0DD2361F0112331F0F7018581C9
:1043600080FF26C18F7085838C2F0E94092145C153
:10437000112359F0093309F02CC1FFEF27EE83E038
:10438000F15020408040E1F722C18C2F0E94102183
:1043900034C18C2F86958695837019F0813061F039
:1043A0002CC1DD2321F0802F9C2F937002C080E070
:1043B00090E00E945D1E29C1DD2321F0802F9C2FFB
:1043C000937002C080E090E00E94731E1EC18C2F8B
:1043D000837009F045C0D11114C1402F4295469514
:1043E0004770440F440F602F6F70862F90E0A0E05D
:1043F000B0E0042E04C0880F991FAA1FBB1F0A94A7
:10440000D2F704FF10C00FE010E020E030E004C05D
:10441000000F111F221F331F4A95D2F700951095E8
:104420002095309503C000E010E09801C695C69530
:10443000C370BC01CD01602B712B822B932BC2303A
:1044400049F058F4C13019F00E949127DAC00E9457
:104450007F27D7C00E94A327D4C00E947D27D1C048
:10446000DD2319F08C2F817001C08695882309F413
:10447000C8C0402F429546954770440F440F602FA7
:104480006F70862F90E0A0E0B0E0042E04C0880F8B
:10449000991FAA1FBB1F0A94D2F704FF10C00FE098
:1044A00010E020E030E004C0000F111F221F331F76
:1044B0004A95D2F7009510952095309503C000E0FD
:1044C00010E09801C695C695C370BC01CD01602B64
:1044D000712B822B932BC23049F058F4C13019F064
:1044E0000E9456288EC00E9444288BC00E946828D3
:1044F00088C00E94B72785C0CF70DD2339F08C2F8C
:104500000E94DD27802F0E9409217BC0802F0E94FE
:1045100010218C2F0E94FE2774C0023F01F128F465
:10452000003F41F0013FA1F03FC0033FF9F0043FDD
:1045300039F13AC0DD2341F0153008F05EC08C2F10
:104540008F710E94232859C0163008F056C0F7CF4B
:10455000DD2339F08C2F8F710E94DD274EC0DD23C3
:10456000C9F38C2F8F710E94FE2747C0DD2329F0ED
:104570008C2F8F710E94C82740C00E94C3273DC066
:10458000DD2349F0CF718C2F0E94DD2763E08C2F53
:104590000E94112A32C081E00E942C2A123068F158
:1045A00082E00E942C2A29C0DD2331F0112391F2F0
:1045B000802F0E94E81F21C0112399F2093349F48A
:1045C0009FEFE7EEF3E09150E040F040E1F700C0EC
:1045D0000000802F0E948A2010C04C2F4F70602F47
:1045E000C7010E9427070E94EE260FC04C2F4F7074
:1045F000602FC7010E942A0708C088EF8C0D843005
:1046000020F40E94081E0E941E07DD20C9F00E94AF
:104610004A2980FD15C0F70112820E9444290E9498
:10462000DD27C7010E9441230E944429DF91CF91D9
:104630001F910F91FF90EF90DF90CF900C94FE2789
:10464000DF91CF911F910F91FF90EF90DF90CF906E
:1046500008950F931F93CF93DF93EC0168817981C5
:104660008A810E9421298C010E947A280E946B274E
:10467000B801CE010E941721DF91CF911F910F91B8
:104680000895CF93DF93EC01988189812B813C8140
:10469000232B31F08F3F31F481E09F3F19F403C0A9
:1046A00081E001C080E080FD19C0CE010E948C062F
:1046B00081110CC00E944E29882381F08A818823B1
:1046C00069F082E0DF91CF910C942C2ACE010E94F8
:1046D0002923CE01DF91CF910C946906DF91CF9110
:1046E000089580E090E00E945D1E80E090E00E94CE
:1046F000731E0E94AA290E94BA290C94DC29809179
:104700003A0190913B010E94372B0C9471230E9437
:104710009A290C947F23E92FE295EF704E2F50E0F9
:10472000FA013297EE30F105B0F4EA59FF4F0C94DC
:104730006C34803F91F018F4883E68F40EC0843FDA
:1047400051F40BC0883E48F0813F29F406C093FB2A
:10475000882780F9089580E0089581E008950E94F7
:1047600016290E948B230895CF93DF9300D000D0A9
:104770001F92CDB7DEB70F900F900F900F900F9054
:10478000DF91CF910895CF93DF9300D000D000D078
:10479000CDB7DEB726960FB6F894DEBF0FBECDBFFD
:1047A000DF91CF9108951F93CF93DF93C0918D0236
:1047B00016E080918E02C81799F0D0E01C9FF0019E
:1047C0001D9FF00D1124E157FD4F40815181628101
:1047D0007381848195810E94C3232196C770E9CF9C
:1047E000DF91CF911F9108954091BF025091C00277
:1047F0006091C1027091C2028091C3029091C40283
:104800000C94C3230F931F93CF93DF938091C40223
:1048100082958F7009F05DC08091C102882309F4F0
:1048200058C080918D0210918E026091BF027091EC
:10483000C002C091C202D091C30291E06F3F09F063
:1048400090E0292F06E0811709F443C0209721F05A
:104850007F3F21F030E003C031E001C0322F90E013
:1048600030FD34C0089FF001099FF00D1124DF01D5
:10487000A157BD4F11963C911197371327C03C911A
:10488000361324C012963C91129731111FC0139613
:104890004D915C9114974C1B5D0B483C5105B0F455
:1048A0008091C4028F7080618093C402EC56FD4FEA
:1048B00080818F70806180838FEB92E00E94412322
:1048C000DF91CF911F910F910C94D32301968770A4
:1048D000BACFDF91CF911F910F9108959F92AF9220
:1048E000BF92CF92DF92EF92FF920F931F93CF93DD
:1048F000DF93CDB7DEB761970FB6F894DEBF0FBE7A
:10490000CDBF8C0185E0F801DE011D9601900D926E
:104910008A95E1F7F80140815181E2809091BF02D0
:104920006091C0022091C2023091C302211531056D
:1049300031F06F3F31F481E09F3F19F403C081E013
:1049400001C080E0F82FF1709F2E80FD46C1F80174
:10495000A380B4808FEBC82E82E0D82EF090C102E5
:10496000F501E21BF30BFF2009F4DFC08091C402C4
:10497000E83CF10508F09BC0282F207F09F052C0C9
:10498000561313C0491311C0FE2CE1100EC08F70D6
:1049900080618093C4020E94F423C6010E944123D7
:1049A0008091C402F801858358C1AB2831F05F3F84
:1049B00031F481E04F3F19F403C081E001C080E091
:1049C00080FD03C081E08E2502C080E090E0F82FDA
:1049D000F170FF2E80FF1CC080918D0220918E020D
:1049E00036E0821709F417C190E0389FF001399F33
:1049F000F00D1124E157FD4F6181561306C060810F
:104A0000461303C06281E61203C001968770E9CFA6
:104A1000FE2CEE2009F421C18091C40281608093B4
:104A2000C4025AC0561306C0491304C0E11002C0A4
:104A3000F8019FC04D875E878D859E850E94AF23BC
:104A4000882379F1EE2069F12091C402822F8295AA
:104A50008F7090E0029774F08091BF029091C00235
:104A600098878F831986BB86AA862C87CE010796E6
:104A70000E94412386E0F801AFEBB2E001900D9275
:104A80008A95E1F70E9402240E94F4230DC0561774
:104A900029F14D875E878D859E850E94AF23811108
:104AA0002CC0C8010E944123FF24F394D6C0282FB4
:104AB000207F69F77A2DB98AA88A6E2D89890E948C
:104AC000B4238FEB92E00E94412386E0F60111921D
:104AD0008A95E9F70E94F423F12CBFC04913D9CF7E
:104AE000E110D7CFF8018583C8010E94412386E0F9
:104AF000F60111928A95E9F7B0C0EE2091F220916B
:104B0000C402822F82958F7090E002970CF4B2CF8E
:104B10008091BF029091C0029A8389831B82BD82DB
:104B2000AC822E83CE010196A3CFE83CF10508F0BC
:104B300047C0FE2CEE2009F4B4CF561330C0491301
:104B40002EC02091C40220FD21C0822F82958F703B
:104B5000482F50E041155105C9F0F80125834F3029
:104B6000510541F08F5F982F9295907F822F8F7023
:104B7000892B8583C8010E94412386E0F801AFEBB1
:104B8000B2E001900D928A95E1F742C086E0F8010B
:104B9000AFEBB2E001900D928A95E1F75EC04D87D0
:104BA0005E878D859E850E94AF23811163CF8091A2
:104BB000C40281608093C402C8010E9441234DC099
:104BC0007A2DB98AA88A6E2D89890E94B42386E03D
:104BD000F60111928A95E9F71BC0EE2009F461CF26
:104BE0004D875E878D859E850E94AF23F82E882392
:104BF00009F457CF86E0F801AFEBB2E001900D92D7
:104C00008A95E1F78FEB92E00E94E21F0E94022456
:104C10000E94F42322C04D875E878D859E850E9469
:104C20001629292F22952F70223028F49F7039F0F1
:104C3000811105C00BC0243028F49F7049F4805EB8
:104C4000883020F0C8010E9441239F2CF92C05C018
:104C5000F8019581907F99F7F9CF8F2D61960FB666
:104C6000F894DEBF0FBECDBFDF91CF911F910F91A2
:104C7000FF90EF90DF90CF90BF90AF909F900895FE
:104C80001F93CF93DF93CDB7DEB72C970FB6F89471
:104C9000DEBF0FBECDBF4F83588769877A878B876A
:104CA0009C87CE0107960E946E248823D1F09F81B5
:104CB00088852A853B85232B31F08F3F31F481E0B5
:104CC0009F3F19F403C081E001C080E080FD47C030
:104CD0004F81588569857A858B859C850E94C32381
:104CE0003EC086E0FE013796DE01119601900D92DE
:104CF0008A95E1F7FF81E8856A857B8561157105F5
:104D000031F0EF3F31F481E0FF3F19F403C081E05F
:104D100001C080E080FD23C020918E0230E0C901F7
:104D200001968770992740918D0250E0841795076E
:104D3000F1F1F983EA837D836C8396E0929FD00141
:104D4000939FB00D1124A157BD4FFE0131960190E4
:104D50000D929A95E1F780938E020E94D32316E07C
:104D600080918D0290918E02891771F1189FC00178
:104D7000112481579D4F0E946E24882329F1E091D0
:104D80008D021E9FF0011124E157FD4F408151819A
:104D900062817381848195810E94C32380918D02F9
:104DA00090E001968770992780938D02D9CF0E9459
:104DB000872310928E0210928D02EFEBF2E086E0D4
:104DC000DF011D928A95E9F72C960FB6F894DEBFA5
:104DD0000FBECDBFDF91CF911F910895EF92FF924B
:104DE0000F931F93CF93DF938C01892B09F46CC031
:104DF000F12CEE24E394E8012196F80184918437A4
:104E000040F4843008F051C0813081F0823019F1D3
:104E10005BC0853709F444C0A8F19CE7980F903730
:104E200008F052C08F770E948A2041C00E5F1F4F4A
:104E3000FE01849190E2980F983050F48770FE2D17
:104E400001C0FF0F8A95EAF78F2F0E94AD2914C089
:104E50000E94E81F2DC00E5F1F4FFE01849190E25B
:104E6000980F983060F48770FE2D01C0FF0F8A956F
:104E7000EAF78F2F0E94B3290E94DC2919C00E94F3
:104E80008A2016C00E5F1F4FFE01C491CC2381F013
:104E90008FE99FE00197F1F700C00000C150F6CF05
:104EA0000E5F1F4FFE01F49003C00E94E81F8E01A9
:104EB0008F2D882309F49FCFEFE9FFE03197F1F7B9
:104EC00000C000008150F5CFDF91CF911F910F916D
:104ED000FF90EF900895089508950C946C270C941A
:104EE0006D270E946F276093F1027093F202809306
:104EF000F3029093F4020C9471230C9471270F9396
:104F00001F930091F1021091F2022091F30230916F
:104F1000F402602B712B822B932B1F910F910C9419
:104F200071270F931F930091F1021091F2022091CB
:104F3000F3023091F40260237123822393231F91A3
:104F40000F910C9471270F931F930091F102109110
:104F5000F2022091F3023091F40260277127822738
:104F600093271F910F910C9471270C946C270E942A
:104F7000B5276093ED027093EE028093EF02909359
:104F8000F0020C94712360E070E0CB010C94B72721
:104F90000F931F9341E050E060E070E08A019B01B5
:104FA00004C0000F111F221F331F8A95D2F7C901B9
:104FB000B8011F910F910C94B7270F931F9341E0F5
:104FC00050E060E070E004C0440F551F661F771F7B
:104FD0008A95D2F78091ED029091EE02A091EF02B6
:104FE000B091F0028A019B01082B192B2A2B3B2B35
:104FF000C901B8011F910F910C94B7270F931F930C
:1050000041E050E060E070E004C0440F551F661FAF
:10501000771F8A95D2F7409550956095709580914D
:10502000ED029091EE02A091EF02B091F0028A01A0
:105030009B01082319232A233B23C901B8011F918F
:105040000F910C94B7270F931F9341E050E060E05D
:1050500070E004C0440F551F661F771F8A95D2F772
:105060008091ED029091EE02A091EF02B091F002DA
:105070008A019B01082719272A273B27C901B80164
:105080001F910F910C94B7270F931F930091ED027E
:105090001091EE022091EF023091F002602B712B03
:1050A000822B932B1F910F910C94B7270F931F9373
:1050B0000091ED021091EE022091EF023091F0028A
:1050C00060237123822393231F910F910C94B727A0
:1050D0000F931F930091ED021091EE022091EF02C9
:1050E0003091F00260277127822793271F910F913B
:1050F0000C94B7270895292F220F920F990F890F2B
:10510000E82FE695E695E695877051E001C0550FCA
:105110008A95EAF785E0E89FF0011124EB53FD4FF3
:1051200020E030E070E04081CB01022E02C0969575
:1051300087950A94E2F781708195842785238427D7
:1051400081932F5F3F4F2530310569F70895292F4F
:10515000220F920F990F890F682F669566956695B5
:10516000982F977085E0689FB001112440E050E0CF
:1051700080E0FB01E40FF51FEB53FD4F208130E091
:10518000092E02C0369527950A94E2F7217033273D
:10519000042E01C0220F0A94EAF7822B4F5F5F4F63
:1051A0004530510531F70895BF92CF92DF92EF92CB
:1051B000FF920F931F93CF93DF938C01C090ED026A
:1051C000D090EE02E090EF02F090F0028091F102B8
:1051D0009091F202A091F302B091F402C82AD92A68
:1051E000EA2AFB2ACFE1D0E0D701C6010C2E04C089
:1051F000B695A795979587950A94D2F780FD04C038
:10520000219790F7B12C07C0BC2EB8018C2F0E94BB
:1052100046070197A9F38B2DDF91CF911F910F9135
:10522000FF90EF90DF90CF90BF900895CF93DF93E2
:10523000EC010E94D428BE010E944607DF91CF9165
:1052400008951F93CF93DF93EB0190918C029923E4
:1052500021F0CB010E94162913C0882349F0CB010D
:105260000E94D428182F682FCE010E947B2804C0EA
:10527000CB010E94A728182FBE01812F0E9446074C
:10528000DF91CF911F9108958091F50285958595C5
:10529000859508958091F502877008959091F502A3
:1052A000977081E009F480E00895CF939091120304
:1052B00092FB222720F92817E1F0C82F892FC0FB85
:1052C00082F98093120380911103909112030E943E
:1052D0006D2A8091020380FF0CC01F92CF9383EB55
:1052E00098E09F938F930E9405060F900F900F9068
:1052F0000F90CF9108958091120382FB882780F947
:1053000091E089270C94552981E00C94552980E07F
:105310000C94552980910103089590910103892BE4
:1053200080930103089580959091010389238093D0
:105330000103089510920103089590910003892BB1
:1053400080930003089580959091000389238093B2
:10535000000308951092000308959091FF02892B95
:105360008093FF02089580959091FF028923809396
:10537000FF0208951092FF0208958091F6020895A9
:1053800008950C94C0290C94C1299091120392FDA8
:1053900008C09091F602981721F08093F6020C94C1
:1053A000C32908958091F602882329F01092F6020D
:1053B00080E00C94C3290895E0913A01F0913B01FB
:1053C000809101038083E0913A01F0913B0190814B
:1053D00080910003892B8083E0913A01F0913B0199
:1053E00090818091FF02892B80838091F60288232F
:1053F00081F0E0913A01F0913B019081892B80830B
:1054000080913A0190913B010E94F12A81110E9402
:10541000D22980913A0190913B010C94141E0C9476
:10542000C0299091120392FD10C098E0899F9001CD
:105430001124262B2093F5020E94DD278091F5028E
:105440008595859585950C940F2A0C94DD271092EF
:10545000F50280E00C940F2A2091F50280958223BA
:105460008093F502982F977041F430E0482F082E72
:10547000000C550B2417350721F49091120392FF6D
:1054800007C08595859585950E94FE270C94272A4F
:10549000089580E090E00E941A3521E08A3E9E4FF8
:1054A00009F020E0822F089582E090E00C940C3502
:1054B00083E090E00C940C35CF9384E090E00E9460
:1054C0000C35C82F82E290E00E940C352C2F30E082
:1054D000A901582BCA01CF910895CF93C92F682FE6
:1054E00084E090E00E9420356C2F82E290E0CF9122
:1054F0000C942035AB01BC018FE090E00C94323568
:10550000AB01BC0183E190E00C94323560E070E0C7
:10551000CB010C94802A6AEE7EEF80E090E00E943E
:105520003E3560E082E090E00E94203560E083E05C
:1055300090E00E9420351092F1021092F202109237
:10554000F3021092F40260E084E090E00E942035C3
:1055500060E082E290E00E94203560E085E090E02B
:105560000E94203560E086E090E00E9420356FEFD9
:1055700087E090E00E94203540E050E0BA0188E0EA
:1055800090E00E94323560E08DE090E00E9420358E
:1055900040E050E0BA0188E190E00E94323560E0DE
:1055A00087E190E00E94203540E050E0BA018CE1B4
:1055B00090E00E94323560E070E080E290E00E946E
:1055C0003E3540E050E0BA0188E190E00E9432357B
:1055D0000C940E060C948B2A682F8EE090E00C94AD
:1055E0002035FC01329697E080E0915029F021911E
:1055F0002223D9F38F5FF9CF0895662349F0FC0188
:10560000329608962191621729F0E817F907D1F729
:1056100080E0089581E008959C01FC0132969FEF9F
:1056200080E04191461789F09F3F19F4411101C074
:10563000982F8F5F8630A9F79F3F39F0F901E90F66
:10564000F11D97FDFA956283089508959C012A5FE4
:105650003F4FFC014281461301C01282019682171E
:105660009307B9F708950C940C2B0C94262B0296F3
:1056700026E0FC0111922A95E9F7089508950C940B
:105680003E2B0C943E2BCF930E94412B0E94BE0ACE
:105690000E943F2BC0E08C2F0E945409811104C04E
:1056A000CF5FCA30C1F701C081E0CF9108950C945B
:1056B0003E2B0C94572B80915F03843061F10E9444
:1056C000592B80E00E94D71780E00E941E0710929D
:1056D000030320E488E190E00FB6F894A895809346
:1056E00060000FBE2093600083B7817F846083BF1A
:1056F00083B7816083BF7894889583B78E7F83BF9B
:105700000FB6F894A895809160008861809360003E
:10571000109260000FBE08950C943E2B0E948723C8
:105720000E945A160E94081E0E941E070C948C2B81
:105730001F920F920FB60F9211248F939F93AF93E6
:10574000BF9380910303811113C080915303909103
:105750005403A0915503B09156034196A11DB11D6C
:105760008093530390935403A0935503B09356032F
:10577000BF91AF919F918F910F900FBE0F901F908F
:10578000189582E084BD93E095BD9AEF97BD809314
:105790006E0008952FB7F8948091530390915403AD
:1057A000A0915503B09156032FBF08952FB7F894D9
:1057B0006091530370915403809155039091560367
:1057C0002FBF08959C014FB7F89480915303909197
:1057D0005403A0915503B09156034FBF821B930B06
:1057E000089578941F920F920FB60F9211248F9301
:1057F0009F93AF93BF938091530390915403A091D3
:105800005503B09156030196A11DB11D809353031A
:1058100090935403A0935503B0935603BF91AF9157
:105820009F918F910F900FBE0F901F90189510921F
:105830005703109258031092590310925A03089577
:10584000CF92DF92EF92FF926B017C010E94870B57
:1058500081110EC00E94D62BC61AD70AE80AF90A8F
:10586000C0925703D0925803E0925903F0925A0322
:10587000FF90EF90DF90CF9008950F931F930E94B9
:10588000870B882321F01F910F910C94D62B0E9437
:10589000D62B009157031091580320915903309152
:1058A0005A03600F711F821F931F1F910F9108955C
:1058B0000E94870B81110C94CA2B0E943D2CCB01B6
:1058C000089581E08093E00080E28093D8001092F8
:1058D000C9008FE19EE40197F1F700C0000087E066
:1058E00090EBDC018093680390936903A0936A03B3
:1058F000B0936B039CE088E10FB6F894A895809371
:1059000060000FBE90936000FFCF9093FB018093E7
:10591000FA01089580910F0308950895CF93DF93BE
:1059200000D01F92CDB7DEB790915F03943019F588
:1059300089837B836A8382E08093E9008FEF909173
:10594000E800815095FD06C095ED9A95F1F70000AD
:105950008111F5CF8091E80085FF0DC040E050E057
:1059600063E070E0CE0101960E94492F8091E8002B
:105970008E778093E8000F900F900F90DF91CF917A
:105980000895BC0184E00C948E2CBC0183E00C943F
:105990008E2CCF93DF9321E02093E9002FEF3091FD
:1059A000E800215035FD06C035ED3A95F1F70000CD
:1059B0002111F5CF2091E80025FF14C0EC0140E053
:1059C00050E068E070E00E94492F8091E8008E77F7
:1059D0008093E80088E0FE01A7E0B3E001900D921B
:1059E0008A95E1F7DF91CF9108958DEE98E00E94BE
:1059F0006C0580915E03811109C00E94DA300E941B
:105A000037318091E20084608093E200089589EE4E
:105A100098E00E946C0510925E03089585EE98E070
:105A20000C946C0581EE98E00C946C058DED98E07B
:105A30000C946C05209105032F5F822F62E30E9476
:105A40000834992319F02093050308951092050353
:105A500080910603882371F180915F03843041F5C2
:105A60008091E9008F702091EC00922F917020FDC1
:105A700090E8892B93E09093E9009091EB0090FFE0
:105A800014C09091EE0097FF10C09091E80095FF30
:105A900003C01092F100F9CF9091E80090FF05C08B
:105AA0009091E8009E779093E8008F708093E900D2
:105AB00010920603089542E061EC81E00E945330A9
:105AC00042E261EC82E00E94533042E261EC83E00A
:105AD0000C94533080916103833009F460C030F43A
